{
  "_format": "hh-sol-artifact-1",
  "contractName": "talk",
  "sourceName": "contracts/Talk.sol",
  "abi": [
    {
      "inputs": [],
      "name": "getMemos",
      "outputs": [
        {
          "components": [
            {
              "internalType": "string",
              "name": "message",
              "type": "string"
            },
            {
              "internalType": "uint256",
              "name": "timestamp",
              "type": "uint256"
            },
            {
              "internalType": "address",
              "name": "from",
              "type": "address"
            }
          ],
          "internalType": "struct talk.Memo[]",
          "name": "",
          "type": "tuple[]"
        }
      ],
      "stateMutability": "view",
      "type": "function"
    },
    {
      "inputs": [
        {
          "internalType": "string",
          "name": "message",
          "type": "string"
        }
      ],
      "name": "setMessage",
      "outputs": [],
      "stateMutability": "nonpayable",
      "type": "function"
    }
  ],
  "bytecode": "0x608060405234801561001057600080fd5b50610952806100206000396000f3fe608060405234801561001057600080fd5b50600436106100365760003560e01c8063368b87721461003b578063865c517214610057575b600080fd5b610055600480360381019061005091906103e8565b610075565b005b61005f61013d565b60405161006c919061061c565b60405180910390f35b600060405180606001604052808381526020014281526020013373ffffffffffffffffffffffffffffffffffffffff16815250908060018154018082558091505060019003906000526020600020906003020160009091909190915060008201518160000190816100e6919061084a565b506020820151816001015560408201518160020160006101000a81548173ffffffffffffffffffffffffffffffffffffffff021916908373ffffffffffffffffffffffffffffffffffffffff160217905550505050565b60606000805480602002602001604051908101604052809291908181526020016000905b8282101561028557838290600052602060002090600302016040518060600160405290816000820180546101949061066d565b80601f01602080910402602001604051908101604052809291908181526020018280546101c09061066d565b801561020d5780601f106101e25761010080835404028352916020019161020d565b820191906000526020600020905b8154815290600101906020018083116101f057829003601f168201915b50505050508152602001600182015481526020016002820160009054906101000a900473ffffffffffffffffffffffffffffffffffffffff1673ffffffffffffffffffffffffffffffffffffffff1673ffffffffffffffffffffffffffffffffffffffff168152505081526020019060010190610161565b50505050905090565b6000604051905090565b600080fd5b600080fd5b600080fd5b600080fd5b6000601f19601f8301169050919050565b7f4e487b7100000000000000000000000000000000000000000000000000000000600052604160045260246000fd5b6102f5826102ac565b810181811067ffffffffffffffff82111715610314576103136102bd565b5b80604052505050565b600061032761028e565b905061033382826102ec565b919050565b600067ffffffffffffffff821115610353576103526102bd565b5b61035c826102ac565b9050602081019050919050565b82818337600083830152505050565b600061038b61038684610338565b61031d565b9050828152602081018484840111156103a7576103a66102a7565b5b6103b2848285610369565b509392505050565b600082601f8301126103cf576103ce6102a2565b5b81356103df848260208601610378565b91505092915050565b6000602082840312156103fe576103fd610298565b5b600082013567ffffffffffffffff81111561041c5761041b61029d565b5b610428848285016103ba565b91505092915050565b600081519050919050565b600082825260208201905092915050565b6000819050602082019050919050565b600081519050919050565b600082825260208201905092915050565b60005b8381101561049757808201518184015260208101905061047c565b60008484015250505050565b60006104ae8261045d565b6104b88185610468565b93506104c8818560208601610479565b6104d1816102ac565b840191505092915050565b6000819050919050565b6104ef816104dc565b82525050565b600073ffffffffffffffffffffffffffffffffffffffff82169050919050565b6000610520826104f5565b9050919050565b61053081610515565b82525050565b6000606083016000830151848203600086015261055382826104a3565b915050602083015161056860208601826104e6565b50604083015161057b6040860182610527565b508091505092915050565b60006105928383610536565b905092915050565b6000602082019050919050565b60006105b282610431565b6105bc818561043c565b9350836020820285016105ce8561044d565b8060005b8581101561060a57848403895281516105eb8582610586565b94506105f68361059a565b925060208a019950506001810190506105d2565b50829750879550505050505092915050565b6000602082019050818103600083015261063681846105a7565b905092915050565b7f4e487b7100000000000000000000000000000000000000000000000000000000600052602260045260246000fd5b6000600282049050600182168061068557607f821691505b6020821081036106985761069761063e565b5b50919050565b60008190508160005260206000209050919050565b60006020601f8301049050919050565b600082821b905092915050565b6000600883026107007fffffffffffffffffffffffffffffffffffffffffffffffffffffffffffffffff826106c3565b61070a86836106c3565b95508019841693508086168417925050509392505050565b6000819050919050565b600061074761074261073d846104dc565b610722565b6104dc565b9050919050565b6000819050919050565b6107618361072c565b61077561076d8261074e565b8484546106d0565b825550505050565b600090565b61078a61077d565b610795818484610758565b505050565b5b818110156107b9576107ae600082610782565b60018101905061079b565b5050565b601f8211156107fe576107cf8161069e565b6107d8846106b3565b810160208510156107e7578190505b6107fb6107f3856106b3565b83018261079a565b50505b505050565b600082821c905092915050565b600061082160001984600802610803565b1980831691505092915050565b600061083a8383610810565b9150826002028217905092915050565b6108538261045d565b67ffffffffffffffff81111561086c5761086b6102bd565b5b610876825461066d565b6108818282856107bd565b600060209050601f8311600181146108b457600084156108a2578287015190505b6108ac858261082e565b865550610914565b601f1984166108c28661069e565b60005b828110156108ea578489015182556001820191506020850194506020810190506108c5565b868310156109075784890151610903601f891682610810565b8355505b6001600288020188555050505b50505050505056fea2646970667358221220efe71127b5e9a14819771769f3435ffa30ed253086a657f257519ea590f011ab64736f6c63430008110033",
  "linkReferences": {},
  "deployedLinkReferences": {}
}